{
    "contractName": "Voting",
    "abi": [
        {
            "inputs": [
                {
                    "internalType": "bytes32[]",
                    "name": "candidateNames",
                    "type": "bytes32[]"
                }
            ],
            "stateMutability": "nonpayable",
            "type": "constructor"
        },
        {
            "inputs": [
                {
                    "internalType": "bytes32",
                    "name": "",
                    "type": "bytes32"
                }
            ],
            "name": "VotedReceived",
            "outputs": [
                {
                    "internalType": "uint256",
                    "name": "_value",
                    "type": "uint256"
                }
            ],
            "stateMutability": "view",
            "type": "function"
        },
        {
            "inputs": [
                {
                    "internalType": "uint256",
                    "name": "",
                    "type": "uint256"
                }
            ],
            "name": "candidateList",
            "outputs": [
                {
                    "internalType": "bytes32",
                    "name": "",
                    "type": "bytes32"
                }
            ],
            "stateMutability": "view",
            "type": "function"
        },
        {
            "inputs": [
                {
                    "internalType": "bytes32",
                    "name": "candidate",
                    "type": "bytes32"
                }
            ],
            "name": "getVotedReceived",
            "outputs": [
                {
                    "internalType": "uint256",
                    "name": "",
                    "type": "uint256"
                }
            ],
            "stateMutability": "view",
            "type": "function"
        },
        {
            "inputs": [
                {
                    "internalType": "bytes32",
                    "name": "candidate",
                    "type": "bytes32"
                }
            ],
            "name": "incrementVoted",
            "outputs": [],
            "stateMutability": "nonpayable",
            "type": "function"
        },
        {
            "inputs": [
                {
                    "internalType": "bytes32",
                    "name": "candidate",
                    "type": "bytes32"
                }
            ],
            "name": "validCandidate",
            "outputs": [
                {
                    "internalType": "bool",
                    "name": "",
                    "type": "bool"
                }
            ],
            "stateMutability": "view",
            "type": "function"
        }
    ],
    "bytecode": "608060405234801561001057600080fd5b506040516103cb3803806103cb83398101604081905261002f916100bf565b8051610042906001906020840190610049565b505061017c565b828054828255906000526020600020908101928215610084579160200282015b82811115610084578251825591602001919060010190610069565b50610090929150610094565b5090565b5b808211156100905760008155600101610095565b634e487b7160e01b600052604160045260246000fd5b600060208083850312156100d257600080fd5b82516001600160401b03808211156100e957600080fd5b818501915085601f8301126100fd57600080fd5b81518181111561010f5761010f6100a9565b8060051b604051601f19603f83011681018181108582111715610134576101346100a9565b60405291825284820192508381018501918883111561015257600080fd5b938501935b8285101561017057845184529385019392850192610157565b98975050505050505050565b6102408061018b6000396000f3fe608060405234801561001057600080fd5b50600436106100575760003560e01c806315096d4a1461005c5780632773b11a14610071578063392e667814610097578063b13c744b146100ba578063fa7ebca1146100cd575b600080fd5b61006f61006a3660046101b4565b6100ed565b005b61008461007f3660046101b4565b610116565b6040519081526020015b60405180910390f35b6100aa6100a53660046101b4565b61013d565b604051901515815260200161008e565b6100846100c83660046101b4565b610193565b6100846100db3660046101b4565b60006020819052908152604090205481565b6100f68161013d565b6100ff57600080fd5b600090815260208190526040902080546001019055565b60006101218261013d565b61012a57600080fd5b5060009081526020819052604090205490565b6000805b60015481101561018a57826001828154811061015f5761015f6101cd565b9060005260206000200154036101785750600192915050565b80610182816101e3565b915050610141565b50600092915050565b600181815481106101a357600080fd5b600091825260209091200154905081565b6000602082840312156101c657600080fd5b5035919050565b634e487b7160e01b600052603260045260246000fd5b60006001820161020357634e487b7160e01b600052601160045260246000fd5b506001019056fea264697066735822122051d54f8dc8cd5ee7337007c87ccb1a341ac7d41c75a3d1dfba32cfeb495cb81964736f6c63430008130033",
    "sourcePath": "/home/kirov/Desktop/Blockchain/ProjectSocl/voting/contracts/Lock.sol",
    "compiler": {
        "name": "solc",
        "version": "0.8.19+commit.7dd6d404"
    },
    "functionHashes": {
        "VotedReceived(bytes32)": "fa7ebca1",
        "candidateList(uint256)": "b13c744b",
        "getVotedReceived(bytes32)": "2773b11a",
        "incrementVoted(bytes32)": "15096d4a",
        "validCandidate(bytes32)": "392e6678"
    },
    "gasEstimates": {
        "creation": {
            "codeDepositCost": "115200",
            "executionCost": "infinite",
            "totalCost": "infinite"
        },
        "external": {
            "VotedReceived(bytes32)": "2496",
            "candidateList(uint256)": "4608",
            "getVotedReceived(bytes32)": "infinite",
            "incrementVoted(bytes32)": "infinite",
            "validCandidate(bytes32)": "infinite"
        }
    }
}